{
  "_format": "hh-sol-artifact-1",
  "contractName": "MemeHelper",
  "sourceName": "contracts/memehelper.sol",
  "abi": [
    {
      "constant": true,
      "inputs": [
        {
          "name": "_owner",
          "type": "address"
        }
      ],
      "name": "getZMemesByOwner",
      "outputs": [
        {
          "name": "",
          "type": "uint256[]"
        }
      ],
      "payable": false,
      "stateMutability": "view",
      "type": "function"
    },
    {
      "constant": false,
      "inputs": [
        {
          "name": "_memeId",
          "type": "uint256"
        },
        {
          "name": "_caption",
          "type": "string"
        }
      ],
      "name": "changeCaption",
      "outputs": [],
      "payable": false,
      "stateMutability": "nonpayable",
      "type": "function"
    },
    {
      "constant": true,
      "inputs": [
        {
          "name": "",
          "type": "uint256"
        }
      ],
      "name": "memes",
      "outputs": [
        {
          "name": "name",
          "type": "string"
        },
        {
          "name": "caption",
          "type": "string"
        },
        {
          "name": "ipfsHash",
          "type": "string"
        },
        {
          "name": "readyTime",
          "type": "uint32"
        }
      ],
      "payable": false,
      "stateMutability": "view",
      "type": "function"
    },
    {
      "constant": false,
      "inputs": [],
      "name": "withdraw",
      "outputs": [],
      "payable": false,
      "stateMutability": "nonpayable",
      "type": "function"
    },
    {
      "constant": false,
      "inputs": [],
      "name": "renounceOwnership",
      "outputs": [],
      "payable": false,
      "stateMutability": "nonpayable",
      "type": "function"
    },
    {
      "constant": true,
      "inputs": [],
      "name": "owner",
      "outputs": [
        {
          "name": "",
          "type": "address"
        }
      ],
      "payable": false,
      "stateMutability": "view",
      "type": "function"
    },
    {
      "constant": true,
      "inputs": [],
      "name": "isOwner",
      "outputs": [
        {
          "name": "",
          "type": "bool"
        }
      ],
      "payable": false,
      "stateMutability": "view",
      "type": "function"
    },
    {
      "constant": false,
      "inputs": [
        {
          "name": "_memeId",
          "type": "uint256"
        },
        {
          "name": "_newName",
          "type": "string"
        }
      ],
      "name": "changeName",
      "outputs": [],
      "payable": false,
      "stateMutability": "nonpayable",
      "type": "function"
    },
    {
      "constant": true,
      "inputs": [
        {
          "name": "",
          "type": "uint256"
        }
      ],
      "name": "memeToOwner",
      "outputs": [
        {
          "name": "",
          "type": "address"
        }
      ],
      "payable": false,
      "stateMutability": "view",
      "type": "function"
    },
    {
      "constant": false,
      "inputs": [
        {
          "name": "newOwner",
          "type": "address"
        }
      ],
      "name": "transferOwnership",
      "outputs": [],
      "payable": false,
      "stateMutability": "nonpayable",
      "type": "function"
    },
    {
      "anonymous": false,
      "inputs": [
        {
          "indexed": false,
          "name": "memeId",
          "type": "uint256"
        },
        {
          "indexed": false,
          "name": "name",
          "type": "string"
        },
        {
          "indexed": false,
          "name": "caption",
          "type": "string"
        },
        {
          "indexed": false,
          "name": "ipfsHash",
          "type": "string"
        }
      ],
      "name": "NewMeme",
      "type": "event"
    },
    {
      "anonymous": false,
      "inputs": [
        {
          "indexed": true,
          "name": "previousOwner",
          "type": "address"
        },
        {
          "indexed": true,
          "name": "newOwner",
          "type": "address"
        }
      ],
      "name": "OwnershipTransferred",
      "type": "event"
    }
  ],
  "bytecode": "0x608060405262015180600155336000806101000a81548173ffffffffffffffffffffffffffffffffffffffff021916908373ffffffffffffffffffffffffffffffffffffffff1602179055506000809054906101000a900473ffffffffffffffffffffffffffffffffffffffff1673ffffffffffffffffffffffffffffffffffffffff16600073ffffffffffffffffffffffffffffffffffffffff167f8be0079c531659141344cd1fd0a4f28419497f9722a3daafe3b4186f6b6457e060405160405180910390a3610e07806100d66000396000f3fe60806040526004361061009e576000357c0100000000000000000000000000000000000000000000000000000000900480632a91607c146100a35780632d0e343214610149578063388f6064146101d95780633ccfd60b14610378578063715018a61461038f5780638da5cb5b146103a65780638f32d59b146103fd578063c39cbef11461042c578063d46f9c58146104bc578063f2fde38b14610537575b600080fd5b3480156100af57600080fd5b506100f2600480360360208110156100c657600080fd5b81019080803573ffffffffffffffffffffffffffffffffffffffff169060200190929190505050610588565b6040518080602001828103825283818151815260200191508051906020019060200280838360005b8381101561013557808201518184015260208101905061011a565b505050509050019250505060405180910390f35b34801561015557600080fd5b506101d76004803603604081101561016c57600080fd5b81019080803590602001909291908035906020019064010000000081111561019357600080fd5b8201836020820111156101a557600080fd5b803590602001918460018302840111640100000000831117156101c757600080fd5b90919293919293905050506106b9565b005b3480156101e557600080fd5b50610212600480360360208110156101fc57600080fd5b810190808035906020019092919050505061075d565b604051808060200180602001806020018563ffffffff1663ffffffff168152602001848103845288818151815260200191508051906020019080838360005b8381101561026c578082015181840152602081019050610251565b50505050905090810190601f1680156102995780820380516001836020036101000a031916815260200191505b50848103835287818151815260200191508051906020019080838360005b838110156102d25780820151818401526020810190506102b7565b50505050905090810190601f1680156102ff5780820380516001836020036101000a031916815260200191505b50848103825286818151815260200191508051906020019080838360005b8381101561033857808201518184015260208101905061031d565b50505050905090810190601f1680156103655780820380516001836020036101000a031916815260200191505b5097505050505050505060405180910390f35b34801561038457600080fd5b5061038d610974565b005b34801561039b57600080fd5b506103a46109f4565b005b3480156103b257600080fd5b506103bb610ac6565b604051808273ffffffffffffffffffffffffffffffffffffffff1673ffffffffffffffffffffffffffffffffffffffff16815260200191505060405180910390f35b34801561040957600080fd5b50610412610aef565b604051808215151515815260200191505060405180910390f35b34801561043857600080fd5b506104ba6004803603604081101561044f57600080fd5b81019080803590602001909291908035906020019064010000000081111561047657600080fd5b82018360208201111561048857600080fd5b803590602001918460018302840111640100000000831117156104aa57600080fd5b9091929391929390505050610b46565b005b3480156104c857600080fd5b506104f5600480360360208110156104df57600080fd5b8101908080359060200190929190505050610bea565b604051808273ffffffffffffffffffffffffffffffffffffffff1673ffffffffffffffffffffffffffffffffffffffff16815260200191505060405180910390f35b34801561054357600080fd5b506105866004803603602081101561055a57600080fd5b81019080803573ffffffffffffffffffffffffffffffffffffffff169060200190929190505050610c1d565b005b606080600460008473ffffffffffffffffffffffffffffffffffffffff1673ffffffffffffffffffffffffffffffffffffffff168152602001908152602001600020546040519080825280602002602001820160405280156105f95781602001602082028038833980820191505090505b509050600080905060008090505b6002805490508110156106ae578473ffffffffffffffffffffffffffffffffffffffff166003600083815260200190815260200160002060009054906101000a900473ffffffffffffffffffffffffffffffffffffffff1673ffffffffffffffffffffffffffffffffffffffff1614156106a15780838381518110151561068a57fe5b906020019060200201818152505081806001019250505b8080600101915050610607565b508192505050919050565b826003600082815260200190815260200160002060009054906101000a900473ffffffffffffffffffffffffffffffffffffffff1673ffffffffffffffffffffffffffffffffffffffff163373ffffffffffffffffffffffffffffffffffffffff1614151561072757600080fd5b828260028681548110151561073857fe5b90600052602060002090600402016001019190610756929190610d36565b5050505050565b60028181548110151561076c57fe5b9060005260206000209060040201600091509050806000018054600181600116156101000203166002900480601f0160208091040260200160405190810160405280929190818152602001828054600181600116156101000203166002900480156108185780601f106107ed57610100808354040283529160200191610818565b820191906000526020600020905b8154815290600101906020018083116107fb57829003601f168201915b505050505090806001018054600181600116156101000203166002900480601f0160208091040260200160405190810160405280929190818152602001828054600181600116156101000203166002900480156108b65780601f1061088b576101008083540402835291602001916108b6565b820191906000526020600020905b81548152906001019060200180831161089957829003601f168201915b505050505090806002018054600181600116156101000203166002900480601f0160208091040260200160405190810160405280929190818152602001828054600181600116156101000203166002900480156109545780601f1061092957610100808354040283529160200191610954565b820191906000526020600020905b81548152906001019060200180831161093757829003601f168201915b5050505050908060030160009054906101000a900463ffffffff16905084565b61097c610aef565b151561098757600080fd5b6000610991610ac6565b90508073ffffffffffffffffffffffffffffffffffffffff166108fc3073ffffffffffffffffffffffffffffffffffffffff16319081150290604051600060405180830381858888f193505050501580156109f0573d6000803e3d6000fd5b5050565b6109fc610aef565b1515610a0757600080fd5b600073ffffffffffffffffffffffffffffffffffffffff166000809054906101000a900473ffffffffffffffffffffffffffffffffffffffff1673ffffffffffffffffffffffffffffffffffffffff167f8be0079c531659141344cd1fd0a4f28419497f9722a3daafe3b4186f6b6457e060405160405180910390a360008060006101000a81548173ffffffffffffffffffffffffffffffffffffffff021916908373ffffffffffffffffffffffffffffffffffffffff160217905550565b60008060009054906101000a900473ffffffffffffffffffffffffffffffffffffffff16905090565b60008060009054906101000a900473ffffffffffffffffffffffffffffffffffffffff1673ffffffffffffffffffffffffffffffffffffffff163373ffffffffffffffffffffffffffffffffffffffff1614905090565b826003600082815260200190815260200160002060009054906101000a900473ffffffffffffffffffffffffffffffffffffffff1673ffffffffffffffffffffffffffffffffffffffff163373ffffffffffffffffffffffffffffffffffffffff16141515610bb457600080fd5b8282600286815481101515610bc557fe5b90600052602060002090600402016000019190610be3929190610d36565b5050505050565b60036020528060005260406000206000915054906101000a900473ffffffffffffffffffffffffffffffffffffffff1681565b610c25610aef565b1515610c3057600080fd5b610c3981610c3c565b50565b600073ffffffffffffffffffffffffffffffffffffffff168173ffffffffffffffffffffffffffffffffffffffff1614151515610c7857600080fd5b8073ffffffffffffffffffffffffffffffffffffffff166000809054906101000a900473ffffffffffffffffffffffffffffffffffffffff1673ffffffffffffffffffffffffffffffffffffffff167f8be0079c531659141344cd1fd0a4f28419497f9722a3daafe3b4186f6b6457e060405160405180910390a3806000806101000a81548173ffffffffffffffffffffffffffffffffffffffff021916908373ffffffffffffffffffffffffffffffffffffffff16021790555050565b828054600181600116156101000203166002900490600052602060002090601f016020900481019282601f10610d7757803560ff1916838001178555610da5565b82800160010185558215610da5579182015b82811115610da4578235825591602001919060010190610d89565b5b509050610db29190610db6565b5090565b610dd891905b80821115610dd4576000816000905550600101610dbc565b5090565b9056fea165627a7a72305820eb375853874110d088cadfb297bfe873613923de70107dee79c617c3bab7feea0029",
  "linkReferences": {},
  "deployedLinkReferences": {}
}