{
  "_format": "hh-sol-artifact-1",
  "contractName": "ZombieHelper",
  "sourceName": "contracts/zombiehelper.sol",
  "abi": [
    {
      "constant": false,
      "inputs": [
        {
          "name": "_zombieId",
          "type": "uint256"
        }
      ],
      "name": "levelUp",
      "outputs": [],
      "payable": true,
      "stateMutability": "payable",
      "type": "function"
    },
    {
      "constant": false,
      "inputs": [
        {
          "name": "_zombieId",
          "type": "uint256"
        },
        {
          "name": "_kittyId",
          "type": "uint256"
        }
      ],
      "name": "feedOnKitty",
      "outputs": [],
      "payable": false,
      "stateMutability": "nonpayable",
      "type": "function"
    },
    {
      "constant": true,
      "inputs": [
        {
          "name": "",
          "type": "uint256"
        }
      ],
      "name": "zombies",
      "outputs": [
        {
          "name": "name",
          "type": "string"
        },
        {
          "name": "dna",
          "type": "uint256"
        },
        {
          "name": "level",
          "type": "uint32"
        },
        {
          "name": "readyTime",
          "type": "uint32"
        },
        {
          "name": "winCount",
          "type": "uint16"
        },
        {
          "name": "lossCount",
          "type": "uint16"
        }
      ],
      "payable": false,
      "stateMutability": "view",
      "type": "function"
    },
    {
      "constant": false,
      "inputs": [],
      "name": "withdraw",
      "outputs": [],
      "payable": false,
      "stateMutability": "nonpayable",
      "type": "function"
    },
    {
      "constant": true,
      "inputs": [
        {
          "name": "_owner",
          "type": "address"
        }
      ],
      "name": "getZombiesByOwner",
      "outputs": [
        {
          "name": "",
          "type": "uint256[]"
        }
      ],
      "payable": false,
      "stateMutability": "view",
      "type": "function"
    },
    {
      "constant": true,
      "inputs": [
        {
          "name": "",
          "type": "uint256"
        }
      ],
      "name": "zombieToOwner",
      "outputs": [
        {
          "name": "",
          "type": "address"
        }
      ],
      "payable": false,
      "stateMutability": "view",
      "type": "function"
    },
    {
      "constant": false,
      "inputs": [
        {
          "name": "_address",
          "type": "address"
        }
      ],
      "name": "setKittyContractAddress",
      "outputs": [],
      "payable": false,
      "stateMutability": "nonpayable",
      "type": "function"
    },
    {
      "constant": false,
      "inputs": [
        {
          "name": "_zombieId",
          "type": "uint256"
        },
        {
          "name": "_newDna",
          "type": "uint256"
        }
      ],
      "name": "changeDna",
      "outputs": [],
      "payable": false,
      "stateMutability": "nonpayable",
      "type": "function"
    },
    {
      "constant": false,
      "inputs": [
        {
          "name": "_seconds",
          "type": "uint256"
        }
      ],
      "name": "setCooldownTime",
      "outputs": [],
      "payable": false,
      "stateMutability": "nonpayable",
      "type": "function"
    },
    {
      "constant": false,
      "inputs": [],
      "name": "renounceOwnership",
      "outputs": [],
      "payable": false,
      "stateMutability": "nonpayable",
      "type": "function"
    },
    {
      "constant": false,
      "inputs": [
        {
          "name": "_name",
          "type": "string"
        }
      ],
      "name": "createRandomZombie",
      "outputs": [],
      "payable": false,
      "stateMutability": "nonpayable",
      "type": "function"
    },
    {
      "constant": true,
      "inputs": [],
      "name": "owner",
      "outputs": [
        {
          "name": "",
          "type": "address"
        }
      ],
      "payable": false,
      "stateMutability": "view",
      "type": "function"
    },
    {
      "constant": true,
      "inputs": [],
      "name": "isOwner",
      "outputs": [
        {
          "name": "",
          "type": "bool"
        }
      ],
      "payable": false,
      "stateMutability": "view",
      "type": "function"
    },
    {
      "constant": false,
      "inputs": [
        {
          "name": "_zombieId",
          "type": "uint256"
        },
        {
          "name": "_newName",
          "type": "string"
        }
      ],
      "name": "changeName",
      "outputs": [],
      "payable": false,
      "stateMutability": "nonpayable",
      "type": "function"
    },
    {
      "constant": false,
      "inputs": [
        {
          "name": "_fee",
          "type": "uint256"
        }
      ],
      "name": "setLevelUpFee",
      "outputs": [],
      "payable": false,
      "stateMutability": "nonpayable",
      "type": "function"
    },
    {
      "constant": false,
      "inputs": [
        {
          "name": "newOwner",
          "type": "address"
        }
      ],
      "name": "transferOwnership",
      "outputs": [],
      "payable": false,
      "stateMutability": "nonpayable",
      "type": "function"
    },
    {
      "anonymous": false,
      "inputs": [
        {
          "indexed": false,
          "name": "zombieId",
          "type": "uint256"
        },
        {
          "indexed": false,
          "name": "name",
          "type": "string"
        },
        {
          "indexed": false,
          "name": "dna",
          "type": "uint256"
        }
      ],
      "name": "NewZombie",
      "type": "event"
    },
    {
      "anonymous": false,
      "inputs": [
        {
          "indexed": true,
          "name": "previousOwner",
          "type": "address"
        },
        {
          "indexed": true,
          "name": "newOwner",
          "type": "address"
        }
      ],
      "name": "OwnershipTransferred",
      "type": "event"
    }
  ],
  "bytecode": "0x60806040526010600155600154600a0a600255607860035566038d7ea4c68000600855336000806101000a81548173ffffffffffffffffffffffffffffffffffffffff021916908373ffffffffffffffffffffffffffffffffffffffff1602179055506000809054906101000a900473ffffffffffffffffffffffffffffffffffffffff1673ffffffffffffffffffffffffffffffffffffffff16600073ffffffffffffffffffffffffffffffffffffffff167f8be0079c531659141344cd1fd0a4f28419497f9722a3daafe3b4186f6b6457e060405160405180910390a3611779806100ed6000396000f3fe6080604052600436106100e0576000357c0100000000000000000000000000000000000000000000000000000000900480630ce90ec2146100e557806317a7f4cc146101135780632052465e146101585780633ccfd60b146102575780634412e1041461026e578063528b7b8f146103145780635f4623f11461038f5780635faf2880146103e05780636ff7320114610425578063715018a6146104605780637bff0a01146104775780638da5cb5b1461053f5780638f32d59b14610596578063c39cbef1146105c5578063ccf670f814610655578063f2fde38b14610690575b600080fd5b610111600480360360208110156100fb57600080fd5b81019080803590602001909291905050506106e1565b005b34801561011f57600080fd5b506101566004803603604081101561013657600080fd5b81019080803590602001909291908035906020019092919050505061077c565b005b34801561016457600080fd5b506101916004803603602081101561017b57600080fd5b81019080803590602001909291905050506107f0565b60405180806020018781526020018663ffffffff1663ffffffff1681526020018563ffffffff1663ffffffff1681526020018461ffff1661ffff1681526020018361ffff1661ffff168152602001828103825288818151815260200191508051906020019080838360005b838110156102175780820151818401526020810190506101fc565b50505050905090810190601f1680156102445780820380516001836020036101000a031916815260200191505b5097505050505050505060405180910390f35b34801561026357600080fd5b5061026c61090f565b005b34801561027a57600080fd5b506102bd6004803603602081101561029157600080fd5b81019080803573ffffffffffffffffffffffffffffffffffffffff16906020019092919050505061098f565b6040518080602001828103825283818151815260200191508051906020019060200280838360005b838110156103005780820151818401526020810190506102e5565b505050509050019250505060405180910390f35b34801561032057600080fd5b5061034d6004803603602081101561033757600080fd5b8101908080359060200190929190505050610ac0565b604051808273ffffffffffffffffffffffffffffffffffffffff1673ffffffffffffffffffffffffffffffffffffffff16815260200191505060405180910390f35b34801561039b57600080fd5b506103de600480360360208110156103b257600080fd5b81019080803573ffffffffffffffffffffffffffffffffffffffff169060200190929190505050610af3565b005b3480156103ec57600080fd5b506104236004803603604081101561040357600080fd5b810190808035906020019092919080359060200190929190505050610b4a565b005b34801561043157600080fd5b5061045e6004803603602081101561044857600080fd5b8101908080359060200190929190505050610c2c565b005b34801561046c57600080fd5b50610475610c49565b005b34801561048357600080fd5b5061053d6004803603602081101561049a57600080fd5b81019080803590602001906401000000008111156104b757600080fd5b8201836020820111156104c957600080fd5b803590602001918460018302840111640100000000831117156104eb57600080fd5b91908080601f016020809104026020016040519081016040528093929190818152602001838380828437600081840152601f19601f820116905080830192505050505050509192919290505050610d1b565b005b34801561054b57600080fd5b50610554610d95565b604051808273ffffffffffffffffffffffffffffffffffffffff1673ffffffffffffffffffffffffffffffffffffffff16815260200191505060405180910390f35b3480156105a257600080fd5b506105ab610dbe565b604051808215151515815260200191505060405180910390f35b3480156105d157600080fd5b50610653600480360360408110156105e857600080fd5b81019080803590602001909291908035906020019064010000000081111561060f57600080fd5b82018360208201111561062157600080fd5b8035906020019184600183028401116401000000008311171561064357600080fd5b9091929391929390505050610e15565b005b34801561066157600080fd5b5061068e6004803603602081101561067857600080fd5b8101908080359060200190929190505050610f03565b005b34801561069c57600080fd5b506106df600480360360208110156106b357600080fd5b81019080803573ffffffffffffffffffffffffffffffffffffffff169060200190929190505050610f20565b005b600854341415156106f157600080fd5b61073b600160048381548110151561070557fe5b906000526020600020906003020160020160009054906101000a900463ffffffff1663ffffffff16610f3f90919063ffffffff16565b60048281548110151561074a57fe5b906000526020600020906003020160020160006101000a81548163ffffffff021916908363ffffffff16021790555050565b60008160405160200180828152602001915050604051602081830303815290604052805190602001206001900490506107eb83826040805190810160405280600581526020017f6b69747479000000000000000000000000000000000000000000000000000000815250610f69565b505050565b6004818154811015156107ff57fe5b9060005260206000209060030201600091509050806000018054600181600116156101000203166002900480601f0160208091040260200160405190810160405280929190818152602001828054600181600116156101000203166002900480156108ab5780601f10610880576101008083540402835291602001916108ab565b820191906000526020600020905b81548152906001019060200180831161088e57829003601f168201915b5050505050908060010154908060020160009054906101000a900463ffffffff16908060020160049054906101000a900463ffffffff16908060020160089054906101000a900461ffff169080600201600a9054906101000a900461ffff16905086565b610917610dbe565b151561092257600080fd5b600061092c610d95565b90508073ffffffffffffffffffffffffffffffffffffffff166108fc3073ffffffffffffffffffffffffffffffffffffffff16319081150290604051600060405180830381858888f1935050505015801561098b573d6000803e3d6000fd5b5050565b606080600660008473ffffffffffffffffffffffffffffffffffffffff1673ffffffffffffffffffffffffffffffffffffffff16815260200190815260200160002054604051908082528060200260200182016040528015610a005781602001602082028038833980820191505090505b509050600080905060008090505b600480549050811015610ab5578473ffffffffffffffffffffffffffffffffffffffff166005600083815260200190815260200160002060009054906101000a900473ffffffffffffffffffffffffffffffffffffffff1673ffffffffffffffffffffffffffffffffffffffff161415610aa857808383815181101515610a9157fe5b906020019060200201818152505081806001019250505b8080600101915050610a0e565b508192505050919050565b60056020528060005260406000206000915054906101000a900473ffffffffffffffffffffffffffffffffffffffff1681565b610afb610dbe565b1515610b0657600080fd5b80600760006101000a81548173ffffffffffffffffffffffffffffffffffffffff021916908373ffffffffffffffffffffffffffffffffffffffff16021790555050565b60148281600482815481101515610b5d57fe5b906000526020600020906003020160020160009054906101000a900463ffffffff1663ffffffff1610151515610b9257600080fd5b836005600082815260200190815260200160002060009054906101000a900473ffffffffffffffffffffffffffffffffffffffff1673ffffffffffffffffffffffffffffffffffffffff163373ffffffffffffffffffffffffffffffffffffffff16141515610c0057600080fd5b83600486815481101515610c1057fe5b9060005260206000209060030201600101819055505050505050565b610c34610dbe565b1515610c3f57600080fd5b8060038190555050565b610c51610dbe565b1515610c5c57600080fd5b600073ffffffffffffffffffffffffffffffffffffffff166000809054906101000a900473ffffffffffffffffffffffffffffffffffffffff1673ffffffffffffffffffffffffffffffffffffffff167f8be0079c531659141344cd1fd0a4f28419497f9722a3daafe3b4186f6b6457e060405160405180910390a360008060006101000a81548173ffffffffffffffffffffffffffffffffffffffff021916908373ffffffffffffffffffffffffffffffffffffffff160217905550565b6000600660003373ffffffffffffffffffffffffffffffffffffffff1673ffffffffffffffffffffffffffffffffffffffff16815260200190815260200160002054141515610d6957600080fd5b6000610d7482611159565b9050606481811515610d8257fe5b0681039050610d9182826111ec565b5050565b60008060009054906101000a900473ffffffffffffffffffffffffffffffffffffffff16905090565b60008060009054906101000a900473ffffffffffffffffffffffffffffffffffffffff1673ffffffffffffffffffffffffffffffffffffffff163373ffffffffffffffffffffffffffffffffffffffff1614905090565b60028381600482815481101515610e2857fe5b906000526020600020906003020160020160009054906101000a900463ffffffff1663ffffffff1610151515610e5d57600080fd5b846005600082815260200190815260200160002060009054906101000a900473ffffffffffffffffffffffffffffffffffffffff1673ffffffffffffffffffffffffffffffffffffffff163373ffffffffffffffffffffffffffffffffffffffff16141515610ecb57600080fd5b8484600488815481101515610edc57fe5b90600052602060002090600302016000019190610efa929190611628565b50505050505050565b610f0b610dbe565b1515610f1657600080fd5b8060088190555050565b610f28610dbe565b1515610f3357600080fd5b610f3c816114bf565b50565b60008082840190508363ffffffff168163ffffffff1610151515610f5f57fe5b8091505092915050565b826005600082815260200190815260200160002060009054906101000a900473ffffffffffffffffffffffffffffffffffffffff1673ffffffffffffffffffffffffffffffffffffffff163373ffffffffffffffffffffffffffffffffffffffff16141515610fd757600080fd5b6000600485815481101515610fe857fe5b90600052602060002090600302019050611001816115b9565b151561100c57600080fd5b6002548481151561101957fe5b069350600060028583600101540181151561103057fe5b04905060405160200180807f6b69747479000000000000000000000000000000000000000000000000000000815250600501905060405160208183030381529060405280519060200120846040516020018082805190602001908083835b6020831015156110b3578051825260208201915060208101905060208303925061108e565b6001836020036101000a03801982511681845116808217855250505050505090500191505060405160208183030381529060405280519060200120141561110957606360648281151561110257fe5b0682030190505b6111486040805190810160405280600681526020017f4e6f4e616d650000000000000000000000000000000000000000000000000000815250826111ec565b611151826115e0565b505050505050565b600080826040516020018082805190602001908083835b6020831015156111955780518252602082019150602081019050602083039250611170565b6001836020036101000a03801982511681845116808217855250505050505090500191505060405160208183030381529060405280519060200120600190049050600254818115156111e357fe5b06915050919050565b60006001600460c060405190810160405280868152602001858152602001600163ffffffff168152602001600354420163ffffffff168152602001600061ffff168152602001600061ffff168152509080600181540180825580915050906001820390600052602060002090600302016000909192909190915060008201518160000190805190602001906112829291906116a8565b506020820151816001015560408201518160020160006101000a81548163ffffffff021916908363ffffffff16021790555060608201518160020160046101000a81548163ffffffff021916908363ffffffff16021790555060808201518160020160086101000a81548161ffff021916908361ffff16021790555060a082015181600201600a6101000a81548161ffff021916908361ffff1602179055505050039050336005600083815260200190815260200160002060006101000a81548173ffffffffffffffffffffffffffffffffffffffff021916908373ffffffffffffffffffffffffffffffffffffffff1602179055506113cb6001600660003373ffffffffffffffffffffffffffffffffffffffff1673ffffffffffffffffffffffffffffffffffffffff1681526020019081526020016000205461160a90919063ffffffff16565b600660003373ffffffffffffffffffffffffffffffffffffffff1673ffffffffffffffffffffffffffffffffffffffff168152602001908152602001600020819055507f88f026aacbbecc90c18411df4b1185fd8d9be2470f1962f192bf84a27d0704b78184846040518084815260200180602001838152602001828103825284818151815260200191508051906020019080838360005b8381101561147e578082015181840152602081019050611463565b50505050905090810190601f1680156114ab5780820380516001836020036101000a031916815260200191505b5094505050505060405180910390a1505050565b600073ffffffffffffffffffffffffffffffffffffffff168173ffffffffffffffffffffffffffffffffffffffff16141515156114fb57600080fd5b8073ffffffffffffffffffffffffffffffffffffffff166000809054906101000a900473ffffffffffffffffffffffffffffffffffffffff1673ffffffffffffffffffffffffffffffffffffffff167f8be0079c531659141344cd1fd0a4f28419497f9722a3daafe3b4186f6b6457e060405160405180910390a3806000806101000a81548173ffffffffffffffffffffffffffffffffffffffff021916908373ffffffffffffffffffffffffffffffffffffffff16021790555050565b6000428260020160049054906101000a900463ffffffff1663ffffffff1611159050919050565b60035442018160020160046101000a81548163ffffffff021916908363ffffffff16021790555050565b600080828401905083811015151561161e57fe5b8091505092915050565b828054600181600116156101000203166002900490600052602060002090601f016020900481019282601f1061166957803560ff1916838001178555611697565b82800160010185558215611697579182015b8281111561169657823582559160200191906001019061167b565b5b5090506116a49190611728565b5090565b828054600181600116156101000203166002900490600052602060002090601f016020900481019282601f106116e957805160ff1916838001178555611717565b82800160010185558215611717579182015b828111156117165782518255916020019190600101906116fb565b5b5090506117249190611728565b5090565b61174a91905b8082111561174657600081600090555060010161172e565b5090565b9056fea165627a7a7230582004f948a935a0f4da5f3710026a187b795c10cbbbc97553ca7c4a19f8147e8fee0029",
  "linkReferences": {},
  "deployedLinkReferences": {}
}