{
  "_format": "hh-sol-artifact-1",
  "contractName": "Memetherium",
  "sourceName": "contracts/Memetherium.sol",
  "abi": [
    {
      "constant": false,
      "inputs": [
        {
          "name": "_approved",
          "type": "address"
        },
        {
          "name": "_tokenId",
          "type": "uint256"
        }
      ],
      "name": "approve",
      "outputs": [],
      "payable": true,
      "stateMutability": "payable",
      "type": "function"
    },
    {
      "constant": false,
      "inputs": [
        {
          "name": "_name",
          "type": "string"
        },
        {
          "name": "_caption",
          "type": "string"
        },
        {
          "name": "_ipfsHash",
          "type": "string"
        }
      ],
      "name": "createMeme",
      "outputs": [],
      "payable": false,
      "stateMutability": "nonpayable",
      "type": "function"
    },
    {
      "constant": false,
      "inputs": [
        {
          "name": "_from",
          "type": "address"
        },
        {
          "name": "_to",
          "type": "address"
        },
        {
          "name": "_tokenId",
          "type": "uint256"
        }
      ],
      "name": "transferFrom",
      "outputs": [],
      "payable": true,
      "stateMutability": "payable",
      "type": "function"
    },
    {
      "constant": false,
      "inputs": [
        {
          "name": "_memeId",
          "type": "uint256"
        },
        {
          "name": "_caption",
          "type": "string"
        }
      ],
      "name": "changeCaption",
      "outputs": [],
      "payable": false,
      "stateMutability": "nonpayable",
      "type": "function"
    },
    {
      "constant": true,
      "inputs": [
        {
          "name": "",
          "type": "uint256"
        }
      ],
      "name": "memes",
      "outputs": [
        {
          "name": "name",
          "type": "string"
        },
        {
          "name": "caption",
          "type": "string"
        },
        {
          "name": "ipfsHash",
          "type": "string"
        },
        {
          "name": "readyTime",
          "type": "uint32"
        }
      ],
      "payable": false,
      "stateMutability": "view",
      "type": "function"
    },
    {
      "constant": false,
      "inputs": [],
      "name": "withdraw",
      "outputs": [],
      "payable": false,
      "stateMutability": "nonpayable",
      "type": "function"
    },
    {
      "constant": true,
      "inputs": [
        {
          "name": "_tokenId",
          "type": "uint256"
        }
      ],
      "name": "ownerOf",
      "outputs": [
        {
          "name": "",
          "type": "address"
        }
      ],
      "payable": false,
      "stateMutability": "view",
      "type": "function"
    },
    {
      "constant": false,
      "inputs": [
        {
          "name": "_seconds",
          "type": "uint256"
        }
      ],
      "name": "setCooldownTime",
      "outputs": [],
      "payable": false,
      "stateMutability": "nonpayable",
      "type": "function"
    },
    {
      "constant": true,
      "inputs": [
        {
          "name": "_owner",
          "type": "address"
        }
      ],
      "name": "balanceOf",
      "outputs": [
        {
          "name": "",
          "type": "uint256"
        }
      ],
      "payable": false,
      "stateMutability": "view",
      "type": "function"
    },
    {
      "constant": false,
      "inputs": [],
      "name": "renounceOwnership",
      "outputs": [],
      "payable": false,
      "stateMutability": "nonpayable",
      "type": "function"
    },
    {
      "constant": true,
      "inputs": [],
      "name": "owner",
      "outputs": [
        {
          "name": "",
          "type": "address"
        }
      ],
      "payable": false,
      "stateMutability": "view",
      "type": "function"
    },
    {
      "constant": true,
      "inputs": [],
      "name": "isOwner",
      "outputs": [
        {
          "name": "",
          "type": "bool"
        }
      ],
      "payable": false,
      "stateMutability": "view",
      "type": "function"
    },
    {
      "constant": false,
      "inputs": [
        {
          "name": "_memeId",
          "type": "uint256"
        },
        {
          "name": "_newName",
          "type": "string"
        }
      ],
      "name": "changeName",
      "outputs": [],
      "payable": false,
      "stateMutability": "nonpayable",
      "type": "function"
    },
    {
      "constant": true,
      "inputs": [
        {
          "name": "",
          "type": "uint256"
        }
      ],
      "name": "memeToOwner",
      "outputs": [
        {
          "name": "",
          "type": "address"
        }
      ],
      "payable": false,
      "stateMutability": "view",
      "type": "function"
    },
    {
      "constant": true,
      "inputs": [
        {
          "name": "_owner",
          "type": "address"
        }
      ],
      "name": "getMemesByOwner",
      "outputs": [
        {
          "name": "",
          "type": "uint256[]"
        }
      ],
      "payable": false,
      "stateMutability": "view",
      "type": "function"
    },
    {
      "constant": false,
      "inputs": [
        {
          "name": "newOwner",
          "type": "address"
        }
      ],
      "name": "transferOwnership",
      "outputs": [],
      "payable": false,
      "stateMutability": "nonpayable",
      "type": "function"
    },
    {
      "anonymous": false,
      "inputs": [
        {
          "indexed": false,
          "name": "memeId",
          "type": "uint256"
        },
        {
          "indexed": false,
          "name": "name",
          "type": "string"
        },
        {
          "indexed": false,
          "name": "caption",
          "type": "string"
        },
        {
          "indexed": false,
          "name": "ipfsHash",
          "type": "string"
        }
      ],
      "name": "NewMeme",
      "type": "event"
    },
    {
      "anonymous": false,
      "inputs": [
        {
          "indexed": true,
          "name": "previousOwner",
          "type": "address"
        },
        {
          "indexed": true,
          "name": "newOwner",
          "type": "address"
        }
      ],
      "name": "OwnershipTransferred",
      "type": "event"
    },
    {
      "anonymous": false,
      "inputs": [
        {
          "indexed": true,
          "name": "_from",
          "type": "address"
        },
        {
          "indexed": true,
          "name": "_to",
          "type": "address"
        },
        {
          "indexed": true,
          "name": "_tokenId",
          "type": "uint256"
        }
      ],
      "name": "Transfer",
      "type": "event"
    },
    {
      "anonymous": false,
      "inputs": [
        {
          "indexed": true,
          "name": "_owner",
          "type": "address"
        },
        {
          "indexed": true,
          "name": "_approved",
          "type": "address"
        },
        {
          "indexed": true,
          "name": "_tokenId",
          "type": "uint256"
        }
      ],
      "name": "Approval",
      "type": "event"
    }
  ],
  "bytecode": "0x608060405262015180600155336000806101000a81548173ffffffffffffffffffffffffffffffffffffffff021916908373ffffffffffffffffffffffffffffffffffffffff1602179055506000809054906101000a900473ffffffffffffffffffffffffffffffffffffffff1673ffffffffffffffffffffffffffffffffffffffff16600073ffffffffffffffffffffffffffffffffffffffff167f8be0079c531659141344cd1fd0a4f28419497f9722a3daafe3b4186f6b6457e060405160405180910390a3611aa0806100d66000396000f3fe6080604052600436106100e0576000357c010000000000000000000000000000000000000000000000000000000090048063095ea7b3146100e55780630ce264ee1461013357806323b872dd146103295780632d0e343214610397578063388f6064146104275780633ccfd60b146105c65780636352211e146105dd5780636ff732011461065857806370a0823114610693578063715018a6146106f85780638da5cb5b1461070f5780638f32d59b14610766578063c39cbef114610795578063d46f9c5814610825578063ec3178f9146108a0578063f2fde38b14610946575b600080fd5b610131600480360360408110156100fb57600080fd5b81019080803573ffffffffffffffffffffffffffffffffffffffff16906020019092919080359060200190929190505050610997565b005b34801561013f57600080fd5b506103276004803603606081101561015657600080fd5b810190808035906020019064010000000081111561017357600080fd5b82018360208201111561018557600080fd5b803590602001918460018302840111640100000000831117156101a757600080fd5b91908080601f016020809104026020016040519081016040528093929190818152602001838380828437600081840152601f19601f8201169050808301925050505050505091929192908035906020019064010000000081111561020a57600080fd5b82018360208201111561021c57600080fd5b8035906020019184600183028401116401000000008311171561023e57600080fd5b91908080601f016020809104026020016040519081016040528093929190818152602001838380828437600081840152601f19601f820116905080830192505050505050509192919290803590602001906401000000008111156102a157600080fd5b8201836020820111156102b357600080fd5b803590602001918460018302840111640100000000831117156102d557600080fd5b91908080601f016020809104026020016040519081016040528093929190818152602001838380828437600081840152601f19601f820116905080830192505050505050509192919290505050610ab7565b005b6103956004803603606081101561033f57600080fd5b81019080803573ffffffffffffffffffffffffffffffffffffffff169060200190929190803573ffffffffffffffffffffffffffffffffffffffff16906020019092919080359060200190929190505050610e03565b005b3480156103a357600080fd5b50610425600480360360408110156103ba57600080fd5b8101908080359060200190929190803590602001906401000000008111156103e157600080fd5b8201836020820111156103f357600080fd5b8035906020019184600183028401116401000000008311171561041557600080fd5b9091929391929390505050610ee9565b005b34801561043357600080fd5b506104606004803603602081101561044a57600080fd5b8101908080359060200190929190505050610f8d565b604051808060200180602001806020018563ffffffff1663ffffffff168152602001848103845288818151815260200191508051906020019080838360005b838110156104ba57808201518184015260208101905061049f565b50505050905090810190601f1680156104e75780820380516001836020036101000a031916815260200191505b50848103835287818151815260200191508051906020019080838360005b83811015610520578082015181840152602081019050610505565b50505050905090810190601f16801561054d5780820380516001836020036101000a031916815260200191505b50848103825286818151815260200191508051906020019080838360005b8381101561058657808201518184015260208101905061056b565b50505050905090810190601f1680156105b35780820380516001836020036101000a031916815260200191505b5097505050505050505060405180910390f35b3480156105d257600080fd5b506105db6111a4565b005b3480156105e957600080fd5b506106166004803603602081101561060057600080fd5b8101908080359060200190929190505050611224565b604051808273ffffffffffffffffffffffffffffffffffffffff1673ffffffffffffffffffffffffffffffffffffffff16815260200191505060405180910390f35b34801561066457600080fd5b506106916004803603602081101561067b57600080fd5b8101908080359060200190929190505050611261565b005b34801561069f57600080fd5b506106e2600480360360208110156106b657600080fd5b81019080803573ffffffffffffffffffffffffffffffffffffffff16906020019092919050505061127e565b6040518082815260200191505060405180910390f35b34801561070457600080fd5b5061070d6112c7565b005b34801561071b57600080fd5b50610724611399565b604051808273ffffffffffffffffffffffffffffffffffffffff1673ffffffffffffffffffffffffffffffffffffffff16815260200191505060405180910390f35b34801561077257600080fd5b5061077b6113c2565b604051808215151515815260200191505060405180910390f35b3480156107a157600080fd5b50610823600480360360408110156107b857600080fd5b8101908080359060200190929190803590602001906401000000008111156107df57600080fd5b8201836020820111156107f157600080fd5b8035906020019184600183028401116401000000008311171561081357600080fd5b9091929391929390505050611419565b005b34801561083157600080fd5b5061085e6004803603602081101561084857600080fd5b81019080803590602001909291905050506114bd565b604051808273ffffffffffffffffffffffffffffffffffffffff1673ffffffffffffffffffffffffffffffffffffffff16815260200191505060405180910390f35b3480156108ac57600080fd5b506108ef600480360360208110156108c357600080fd5b81019080803573ffffffffffffffffffffffffffffffffffffffff1690602001909291905050506114f0565b6040518080602001828103825283818151815260200191508051906020019060200280838360005b83811015610932578082015181840152602081019050610917565b505050509050019250505060405180910390f35b34801561095257600080fd5b506109956004803603602081101561096957600080fd5b81019080803573ffffffffffffffffffffffffffffffffffffffff169060200190929190505050611621565b005b806003600082815260200190815260200160002060009054906101000a900473ffffffffffffffffffffffffffffffffffffffff1673ffffffffffffffffffffffffffffffffffffffff163373ffffffffffffffffffffffffffffffffffffffff16141515610a0557600080fd5b826005600084815260200190815260200160002060006101000a81548173ffffffffffffffffffffffffffffffffffffffff021916908373ffffffffffffffffffffffffffffffffffffffff160217905550818373ffffffffffffffffffffffffffffffffffffffff163373ffffffffffffffffffffffffffffffffffffffff167f8c5be1e5ebec7d5bd14f71427d1e84f3dd0314c0f7b2291e5b200ac8c7c3b92560405160405180910390a4505050565b600060016002608060405190810160405280878152602001868152602001858152602001600154420163ffffffff16815250908060018154018082558091505090600182039060005260206000209060040201600090919290919091506000820151816000019080519060200190610b3092919061194f565b506020820151816001019080519060200190610b4d92919061194f565b506040820151816002019080519060200190610b6a92919061194f565b5060608201518160030160006101000a81548163ffffffff021916908363ffffffff1602179055505050039050336003600083815260200190815260200160002060006101000a81548173ffffffffffffffffffffffffffffffffffffffff021916908373ffffffffffffffffffffffffffffffffffffffff160217905550610c3c6001600460003373ffffffffffffffffffffffffffffffffffffffff1673ffffffffffffffffffffffffffffffffffffffff1681526020019081526020016000205461164090919063ffffffff16565b600460003373ffffffffffffffffffffffffffffffffffffffff1673ffffffffffffffffffffffffffffffffffffffff168152602001908152602001600020819055507f8b8243a7ebfc63b1a5fa63618ba08281ad95c8f79653c4e322d14217b97281358185858560405180858152602001806020018060200180602001848103845287818151815260200191508051906020019080838360005b83811015610cf2578082015181840152602081019050610cd7565b50505050905090810190601f168015610d1f5780820380516001836020036101000a031916815260200191505b50848103835286818151815260200191508051906020019080838360005b83811015610d58578082015181840152602081019050610d3d565b50505050905090810190601f168015610d855780820380516001836020036101000a031916815260200191505b50848103825285818151815260200191508051906020019080838360005b83811015610dbe578082015181840152602081019050610da3565b50505050905090810190601f168015610deb5780820380516001836020036101000a031916815260200191505b5097505050505050505060405180910390a150505050565b3373ffffffffffffffffffffffffffffffffffffffff166003600083815260200190815260200160002060009054906101000a900473ffffffffffffffffffffffffffffffffffffffff1673ffffffffffffffffffffffffffffffffffffffff161480610ece57503373ffffffffffffffffffffffffffffffffffffffff166005600083815260200190815260200160002060009054906101000a900473ffffffffffffffffffffffffffffffffffffffff1673ffffffffffffffffffffffffffffffffffffffff16145b1515610ed957600080fd5b610ee483838361165e565b505050565b826003600082815260200190815260200160002060009054906101000a900473ffffffffffffffffffffffffffffffffffffffff1673ffffffffffffffffffffffffffffffffffffffff163373ffffffffffffffffffffffffffffffffffffffff16141515610f5757600080fd5b8282600286815481101515610f6857fe5b90600052602060002090600402016001019190610f869291906119cf565b5050505050565b600281815481101515610f9c57fe5b9060005260206000209060040201600091509050806000018054600181600116156101000203166002900480601f0160208091040260200160405190810160405280929190818152602001828054600181600116156101000203166002900480156110485780601f1061101d57610100808354040283529160200191611048565b820191906000526020600020905b81548152906001019060200180831161102b57829003601f168201915b505050505090806001018054600181600116156101000203166002900480601f0160208091040260200160405190810160405280929190818152602001828054600181600116156101000203166002900480156110e65780601f106110bb576101008083540402835291602001916110e6565b820191906000526020600020905b8154815290600101906020018083116110c957829003601f168201915b505050505090806002018054600181600116156101000203166002900480601f0160208091040260200160405190810160405280929190818152602001828054600181600116156101000203166002900480156111845780601f1061115957610100808354040283529160200191611184565b820191906000526020600020905b81548152906001019060200180831161116757829003601f168201915b5050505050908060030160009054906101000a900463ffffffff16905084565b6111ac6113c2565b15156111b757600080fd5b60006111c1611399565b90508073ffffffffffffffffffffffffffffffffffffffff166108fc3073ffffffffffffffffffffffffffffffffffffffff16319081150290604051600060405180830381858888f19350505050158015611220573d6000803e3d6000fd5b5050565b60006003600083815260200190815260200160002060009054906101000a900473ffffffffffffffffffffffffffffffffffffffff169050919050565b6112696113c2565b151561127457600080fd5b8060018190555050565b6000600460008373ffffffffffffffffffffffffffffffffffffffff1673ffffffffffffffffffffffffffffffffffffffff168152602001908152602001600020549050919050565b6112cf6113c2565b15156112da57600080fd5b600073ffffffffffffffffffffffffffffffffffffffff166000809054906101000a900473ffffffffffffffffffffffffffffffffffffffff1673ffffffffffffffffffffffffffffffffffffffff167f8be0079c531659141344cd1fd0a4f28419497f9722a3daafe3b4186f6b6457e060405160405180910390a360008060006101000a81548173ffffffffffffffffffffffffffffffffffffffff021916908373ffffffffffffffffffffffffffffffffffffffff160217905550565b60008060009054906101000a900473ffffffffffffffffffffffffffffffffffffffff16905090565b60008060009054906101000a900473ffffffffffffffffffffffffffffffffffffffff1673ffffffffffffffffffffffffffffffffffffffff163373ffffffffffffffffffffffffffffffffffffffff1614905090565b826003600082815260200190815260200160002060009054906101000a900473ffffffffffffffffffffffffffffffffffffffff1673ffffffffffffffffffffffffffffffffffffffff163373ffffffffffffffffffffffffffffffffffffffff1614151561148757600080fd5b828260028681548110151561149857fe5b906000526020600020906004020160000191906114b69291906119cf565b5050505050565b60036020528060005260406000206000915054906101000a900473ffffffffffffffffffffffffffffffffffffffff1681565b606080600460008473ffffffffffffffffffffffffffffffffffffffff1673ffffffffffffffffffffffffffffffffffffffff168152602001908152602001600020546040519080825280602002602001820160405280156115615781602001602082028038833980820191505090505b509050600080905060008090505b600280549050811015611616578473ffffffffffffffffffffffffffffffffffffffff166003600083815260200190815260200160002060009054906101000a900473ffffffffffffffffffffffffffffffffffffffff1673ffffffffffffffffffffffffffffffffffffffff161415611609578083838151811015156115f257fe5b906020019060200201818152505081806001019250505b808060010191505061156f565b508192505050919050565b6116296113c2565b151561163457600080fd5b61163d8161183c565b50565b600080828401905083811015151561165457fe5b8091505092915050565b6116b16001600460008573ffffffffffffffffffffffffffffffffffffffff1673ffffffffffffffffffffffffffffffffffffffff1681526020019081526020016000205461164090919063ffffffff16565b600460008473ffffffffffffffffffffffffffffffffffffffff1673ffffffffffffffffffffffffffffffffffffffff168152602001908152602001600020819055506117476001600460003373ffffffffffffffffffffffffffffffffffffffff1673ffffffffffffffffffffffffffffffffffffffff1681526020019081526020016000205461193690919063ffffffff16565b600460003373ffffffffffffffffffffffffffffffffffffffff1673ffffffffffffffffffffffffffffffffffffffff16815260200190815260200160002081905550816003600083815260200190815260200160002060006101000a81548173ffffffffffffffffffffffffffffffffffffffff021916908373ffffffffffffffffffffffffffffffffffffffff160217905550808273ffffffffffffffffffffffffffffffffffffffff168473ffffffffffffffffffffffffffffffffffffffff167fddf252ad1be2c89b69c2b068fc378daa952ba7f163c4a11628f55a4df523b3ef60405160405180910390a4505050565b600073ffffffffffffffffffffffffffffffffffffffff168173ffffffffffffffffffffffffffffffffffffffff161415151561187857600080fd5b8073ffffffffffffffffffffffffffffffffffffffff166000809054906101000a900473ffffffffffffffffffffffffffffffffffffffff1673ffffffffffffffffffffffffffffffffffffffff167f8be0079c531659141344cd1fd0a4f28419497f9722a3daafe3b4186f6b6457e060405160405180910390a3806000806101000a81548173ffffffffffffffffffffffffffffffffffffffff021916908373ffffffffffffffffffffffffffffffffffffffff16021790555050565b600082821115151561194457fe5b818303905092915050565b828054600181600116156101000203166002900490600052602060002090601f016020900481019282601f1061199057805160ff19168380011785556119be565b828001600101855582156119be579182015b828111156119bd5782518255916020019190600101906119a2565b5b5090506119cb9190611a4f565b5090565b828054600181600116156101000203166002900490600052602060002090601f016020900481019282601f10611a1057803560ff1916838001178555611a3e565b82800160010185558215611a3e579182015b82811115611a3d578235825591602001919060010190611a22565b5b509050611a4b9190611a4f565b5090565b611a7191905b80821115611a6d576000816000905550600101611a55565b5090565b9056fea165627a7a7230582011d2b9fd9fa4c455d040e2532654e04e8b5ea205436a5fe890cb25eae608edf70029",
  "linkReferences": {},
  "deployedLinkReferences": {}
}